:020000040800F2
:100000000050002011600108552101080D2B000847
:1000100053210108512101084F210108000000006F
:100020000000000000000000000000004D21010859
:100030004B21010800000000492101080D2400089F
:10004000AD600108AD600108AD600108AD60010858
:10005000AD600108AD600108AD600108AD60010848
:10006000AD600108AD600108AD600108410F0108F5
:10007000310F0108210F0108110F0108010F0108BC
:10008000ED0E0108D90E0108AD600108AD60010850
:1000900031420108AD600108AD600108AD600108A2
:1000A000AD600108AD600108AD600108AD600108F8
:1000B000AD6001089D1D0008AD60010837130108FF
:1000C0003D1301082D13010833130108AD60010829
:1000D000AD600108B1240008A52400089924000897
:1000E000AD600108AD600108392101080000000081
:1000F0000000000000000000000000000000000000
:0C01000000000000000000005FF808F1A3
:1001100070470020704770B505460026064C2068E1
:1001200000B970BD4368EB1A002BFADB83680673D5
:10013000236003689847F2E788050020034610B55E
:100140001C6C4069D96844B11A6D8C1A013A08BF19
:100150000A46005D1A65C0B210BD1A6A805C0132A1
:100160008A4228BF2246C0B21A62F5E7436C13B137
:1001700090F860007047836A406A1B1A58425841E1
:1001800070470269D0E90913994238BF8918CB1A20
:10019000416C501E21B14A6892B21344834201D28D
:1001A000C01A704700207047036C4BB15B68026D4A
:1001B0009BB29A4291BF981AC068801AC0187047C3
:1001C000D0E907239A422FBFD01AC0688018C01AFE
:1001D00070470A4B30B503F10C0493F900205D78A9
:1001E000072AC8BF143A81188D729D78043385544C
:1001F00013F8012C9C420A75EFD130BDB88101087B
:1002000003681B691847002070470020704770473B
:100210007047704770470120704700207047704753
:100220003D230370002343708370C3707047084BF5
:1002300019791A4609B15B792BB9907928B192687E
:10024000044B1A607047002070470120704700BFC0
:10025000880500208C17002038B50024054D55F87E
:10026000340001340EF070F90EF0CEF9212CF6D1E5
:1002700038BD00BFC48101082DE9F04FB64B85B0F1
:100280001B6803B35B699847E8B141F2BC43B34CC8
:10029000E358002B01DD11F05EFF6378022B0FD1D4
:1002A000AF4D05F19806A378072B0CD8DFE813F0C3
:1002B0000E003D00B000BB00BF004A0176017F0187
:1002C000032B00F0768105B0BDE8F08F00230922F2
:1002D00003A9184611F0D2FF0128F4D1039B93F82B
:1002E000FE21552A1AD193F8FF21AA2A16D103F527
:1002F000DF7203F5FF73906868B11179A1F10B0704
:10030000012F03D901F0F701062904D1954B18609C
:100310000123A370C7E710329342ECD141F2D453CA
:100320000222E25401236370CDE741F21C650023F1
:10033000092203A9605911F0A1FF0128C3D10022AD
:10034000039B2270B3F80B20B2F5007F40D11A7CDA
:10035000022A3DD193F8FE21552A39D193F8FF2185
:10036000AA2A35D1DA8966597F4916440E6041F2CE
:1003700030615F7B6750791E7F2929D8794237EA3F
:10038000010125D141F23860790201392150D88A22
:1003900000B9586A41F224616050B3F811507349B2
:1003A0006D0105F2FF156D120D60B3F8131001B960
:1003B000196A40002A4402448A1AB2FBF7F241F259
:1003C0002861625040F6F4718A4205D801232370F7
:1003D00041F2D4530322A4E74FF6F4718A4294BF4A
:1003E0000222032222702278032A18BF002341F23E
:1003F0003C6208BFDB6AA35041F22C6273190344CC
:100400000020A35012F000FCA3780133A3705AE738
:100410000323A370564B05220093564930235048BE
:1004200014F03EFD4FE74E4812F070FF4BE712F01C
:100430009FF88046DFF85091207D48B30128FCD119
:100440004FF0FF3C4C4B4D491B6808685B02BCFBFE
:10045000F3FC002300216268023012EB0C0A43F126
:10046000000B594508BF504538BF824644495246A3
:10047000022012F01FFA0328DED801A353F820F05F
:10048000C7020008C1040008C7020008C104000830
:1004900032684946023212F00DFA0328CCD801A383
:1004A00053F820F0C7020008B5040008C70200088E
:1004B000EB04000863680133A36001232375BBE7E5
:1004C0002769D4E90123991AB94288BFC4E90321F5
:1004D00003280AD00133B3FBF8F208FB12320AB149
:1004E00043449B1A63600023E8E706232769A3704F
:1004F000652F7FF6D8AEA7F16403236112F038F8B8
:10050000653F404207400137276112F031F88742CA
:100510007FF6C9AED4F80C80306847440230874279
:100520002CBF0020012012F0AFFA164A2169D36FC8
:10053000C4E901874B435B0242E90733C2F80080FC
:100540000523E6E6A2681049012012F041F80128CF
:100550001CD10623DDE600BFC42F00207C30002024
:100560000C460020984600209C460020BC460020F7
:1005700085250108A1A20108AC460020A446002060
:1005800084300020304600208030002002287FF494
:100590009AAE012341F2D452A354C4E60021284666
:1005A00011F092FF0128F1D1A3780133B1E60323C2
:1005B000B9E6054812F0AAFE044812F0A7FE044866
:1005C00012F0A4FE03482FE75446002040450020C7
:1005D00084450020C845002038B5074C074DAC4283
:1005E00003D30022064B1A7338BDA288D4E9020156
:1005F00017F073FD1834F2E78CCB010894CF010893
:1006000088050020436A8269D154436A0269013334
:10061000934228BF00234362436C0BB110F0F5BA3C
:10062000C26DD36843F08003D3607047017110F04E
:100630002DBB816010F02ABB2DE9F04F8046354C70
:1006400087B0354A2378608802EB8303D3F89C9106
:1006500010F0CAF9D0E902A30493304B1B7B13B905
:10066000CDF810A09A46002608F04003DFF8B8B095
:100670000593A379002B08BF01239E4206DB284B7C
:1006800008349C42DDD107B0BDE8F08F6279237950
:1006900006FB0323049A0136D55CBAF1000F11D191
:1006A000B5FA85F77F090DB305F00F032D09403525
:1006B0000293CDE900654B465A46394640460EF056
:1006C000C1FDD6E71AF80330EA1A57425741C3B1C1
:1006D00003F00F021B0940330292CDE900635A4632
:1006E0004B46394640460EF095FDDCE7059B002B56
:1006F000BFD100964B460B4A394640460EF0A2FD4C
:10070000B7E700964B46074A394640460EF082FD51
:10071000C9E700BFCC820108B88101088805002024
:1007200054830108C2A20108ACA2010838B50B4BE2
:100730000D4603EBC00494F81421094803EB82032F
:10074000D3F89C110EF0AEFB94F81A312BB1691C52
:100750000448BDE838400EF0A5BB38BDB88101089B
:10076000B5C901083FC801087FB50A4B0A4A04937E
:100770000A4B0B4903930B4B0B4802930B4B019312
:100780000B4B00930B4B0EF08DFB07B05DF804EBA9
:100790000DF03ABF13A30108D6A2010818A301085F
:1007A000DDA2010822A30108E8A201082BA3010889
:1007B00037A30108111A00202DE9F04F0026374613
:1007C000B146624D8BB0624B62491A680023934276
:1007D00023DB01360C2E05F14005F4D15E4BDB78AE
:1007E000C3B14FF47A735D49D1E904028969B0FB62
:1007F000F3F352095A480EF018FB0A2297FBF2F362
:1008000099FBF2F102FB13775648009702FB119215
:100810000EF00BFB0BB0BDE8F08F51F823008542C2
:1008200027D00133D3E74FF000083EE05B46079A3C
:1008300002214D480EF036FB444641E0686B40090A
:1008400007D015F031F90146484815F039FA15F08E
:100850005FFB04465A46314645480EF023FB4FF0F5
:1008600000082DE0504636E0214642480EF0DDFA01
:100870005EE0D5E900B30793D5E90EA308932B6B8F
:10088000022E0993DAD1EC6A0021204615F0F8FA1D
:100890000028C8D12146354815F012FA15F038FB6A
:1008A00015F006F915F034FB8046334B1C78012C0B
:1008B000BCD95A4602212E4898FBF4F40EF0F2FA05
:1008C000BAF1000FCED041F288314FF47A700AFBB2
:1008D0000411B1FBF0F0099B5B091DBF41F28832A6
:1008E0004FF47A7103FB04221A4618BFB2FBF1F2EF
:1008F0001949062EC9781CBF8144BF180029B3D0FE
:100900004FF47A7C0899B1FBFCF104910A2192FB27
:10091000F1FC01FB1C22CDE902C290FBF1F201FBCC
:1009200012011648CDE90021524621460EF07DFA0B
:10093000022E08D1104B1B78012B04D9424607998F
:100940000F480EF072FA0023AB6342E770000020FC
:10095000EC1A0020F01A00200A1A00208805002056
:1009600093A30108B3A301084CA301080024744910
:100970003DA301088FA30108801700205FA3010891
:1009800083A30108454B2DE9F3411A68444B4549BF
:10099000B2FBF3F244480EF085FA0DF035FE434AFF
:1009A000434944480EF07EFA434E0DF02DFE434B72
:1009B000434AB18BD21A43480EF037FA424B434FA9
:1009C00019684FF47A734248B1FBF3F10EF06AFAFA
:1009D0000DF01AFED7F89C50002D4DD0284615F08A
:1009E00067F801463B4815F06BF915F091FA80461F
:1009F000394B188838B115F057F80146354815F0CD
:100A00005FF915F085FA0446F86938B115F050F829
:100A10000146304815F054F915F07AFA2F4B2A4662
:100A20001988CDE900406429A8BF642143462C48B9
:100A30000EF0FBF92B4B2C4D1B782C4A2C4905EB67
:100A40008303D3F8F032127809882A480EF0EDF9C2
:100A5000F18B012628480EF0E8F900200EF02FFA5D
:100A600026480DF071FD264B264F1C6834B902B0A4
:100A7000BDE8F0410DF0C8BDA846B9E794FAA4F36B
:100A8000B3FA83F306FA03F205EB8303D3F80413F6
:100A9000384624EA02040EF005FAE7E76C0000206D
:100AA00040420F00E1A30108E6A301080050002026
:100AB00000080000F9A301088805002000F80108DB
:100AC000000002081DA401081C2E00207000002058
:100AD00047A4010800247449DC1D0020DC0E00201E
:100AE00061A40108481F0020B88101086E0E002093
:100AF000D00E0020A7A40108CEA40108DDA401089F
:100B0000A4190020B4C9010838B50446104D204688
:100B10000DF064FC60B10F4B0F4893F900104B1CB3
:100B20000ABF0E4BC9B25978BDE838400EF07DB906
:100B300020460EF0C3FC022804D8C0B209F004FE1F
:100B40002C46E4E70221BDE8384005480EF04CB9D8
:100B5000D9A6010800000020F3A401080A1A002009
:100B600002A501082DE9F74F00263D4B3D4D1A78AF
:100B70005B7800906A702B70B0460DF06DFC0FF042
:100B800023FFDFF8EC900D24744309EB0403D3F842
:100B900064A3009950460FF015FB002841D0324B5A
:100BA0001F19B8F1000F01D00DF02EFD51462F484E
:100BB0000EF078F9002138460FF0E2FF0DF024FD29
:100BC000294B1C44237903F01803082B3DD0102B2C
:100BD0003FD038460EF0EAF90D23254A03FB0623E1
:100BE000B3F86D030FF000FF0446C0B138460DF0B6
:100BF000FDFBD4E9022183460244014438460DF04E
:100C000043FC60B9019051461A480EF04BF9A168B7
:100C1000019A594438460EF02DFA0DF0F5FC08F112
:100C200001080136D22EAED1134B1B7B0BB1FFF75F
:100C3000D3FCFF236B702B70B8F1000F0DD10F4860
:100C400003B0BDE8F04F0EF0CFB80D480EF039FC00
:100C5000BFE70B48FFF758FFBBE703B0BDE8F08FD5
:100C60000A1A0020000000201C85010871CB010831
:100C7000B881010822A501088805002032A50108D5
:100C8000D9A6010802287FB504460E4612D80A4D9F
:100C900028700DF0B9FC0948FFF736FF22460849D5
:100CA00068460EF01BFB6A46314610200FF0AEFE80
:100CB000FF232B7004B070BD00000020D9A60108EE
:100CC000F3A4010801287FB504460E4612D80A4D48
:100CD00068700DF099FC09480EF0F3FB22460849B4
:100CE00001A80EF0FBFA01AA314608200FF08EFE93
:100CF000FF236B7004B070BD00000020D9A601086E
:100D0000F7A401082DE9F04F5E2885B005460C4692
:100D100000F0088600F233813B2800F0F3832FD8DF
:100D20002C2800F06D8418D8222800F0F18304D814
:100D30000A2800F0008301213DE0262800F0778397
:100D40002A28F8D1B54B22681978501C2060117000
:100D50005A782368591C2160D8E3342800F018849D
:100D600004D83228E7D1AE4BDA7BF2E7362800F020
:100D7000C6843A28DFD1002120460FF0E4FDE1E2ED
:100D80004D2800F0B2843AD8402800F0B28417D839
:100D90003D28D0D1A34B5A780B68591C2160002103
:100DA0001A7023685A1C226019709F4B1A792368A5
:100DB000581C20601A7081F0010005B0BDE8F08F6A
:100DC000462800F0B0844B28B5D1984D0B682A799D
:100DD000591C21601A7023686A79591C21601A70A5
:100DE000298820460FF0C3FD2368AA79591C216089
:100DF0001A70698820460FF0BAFDEA79A9E75028F1
:100E000000F0A18431D84F2895D1894B93F8273031
:100E1000002B00F0E08412F039FB864F002800F030
:100E2000D18412F029FB002800F0C8847E78022EBD
:100E300000F0A084032E41F2D45300F0B0840025CA
:100E400017F803802F46012301222168481C2060E7
:100E50000A702268511C21601370236839465A1C9D
:100E6000226083F8008000F068BC5A2800F00A85F0
:100E70005C287FF460AF704E0B68B27900256F4F2D
:100E8000591C21601A703B68204659880FF06FFD8D
:100E90003B68204619880FF06AFD718920460FF0E3
:100EA00066FDB18920460FF062FD3B6820469988B7
:100EB0000FF05DFD3B682046D9880FF058FDF189A1
:100EC00020460FF054FD318A20460FF050FD3B685C
:100ED000204693F826202368591C21601A70236845
:100EE000B278591C21601A7023685A1C22601D7048
:100EF000F1880FF03CFD318920460FF038FD236862
:100F0000727D591C21601A702368B27D591C2160C2
:100F10001A703B682046B3F84C100FF028FD3B6870
:100F2000204693F85E202368591C21601A702946D8
:100F30000FF01DFD294620460FF019FD29462046D9
:100F40000FF015FD294620460FF011FD23682946B4
:100F50005A1C22601D70236820465A1C22601D7096
:100F60000FF005FD294620460FF001FD23685A1CAD
:100F700022601D7023685A1C22601D70E2E17528F2
:100F800000F0748100F28B80692800F047822BD832
:100F9000652800F0C98010D860287FF4CCAE284BBB
:100FA0009A780B68591C21601A7023685A1C2260B9
:100FB00001221A7023689918CDE6662800F078811E
:100FC00068287FF4B8AE00251E4E1F4F336893F893
:100FD0002E20002A40F0E6810021204601350FF046
:100FE000C6FC082DF2D1ADE16D2800F01B822FD890
:100FF0006C287FF4A0AE154D204629880FF0B7FC71
:10100000698820460FF0B3FC0A23B5F9041091FB60
:10101000F3F189B220460FF0AAFC93E134190020C5
:101020008E0C00201E1A0020562000206818002078
:10103000880500207C3000201E1600208817002024
:101040006E1600207C2F00205C2F0020D01700207F
:101050006F2800F0F78170287FF46DAE002306251D
:10106000BD4805FB03F1026801330A44167A226881
:10107000052B02F101072760167002680A44567AB0
:10108000226802F101072760167002680A44917A0B
:10109000226802F1010626601170E2D152E18B282C
:1010A00000F08D8138D87D2800F09C830DD87C28F5
:1010B0007FF441AEA94D204629880FF058FC69887D
:1010C00020460FF054FCA988A4E77E2800F09D83F9
:1010D00083287FF430AEA24D2046A98A0FF047FC4A
:1010E000E98A20460FF043FC298B20460FF03FFC95
:1010F0009C4B1A782368591C21601A702368AA7EB9
:10110000591C216000211A7023685A1C2260197032
:1011100023685A1C22609AE0BB2800F0938400F2F6
:10112000988096287FF407AE00239A461E46CDE9A4
:1011300000338D4FDFF86482DFF864925146384601
:101140005FFA8AFB0DF02FFDE0B10023ADF8083007
:1011500040F20123ADF80A3040F60603ADF80C303A
:1011600040F60A33ADF80E30BAF1000F40F0888037
:1011700099F8000000F0010018B1314668460DF002
:1011800006FD01360AF1010ABAF1280FD6D1774BD4
:101190002046B3F89C100FF0EAFB754B2046D98B24
:1011A0000FF0E5FB734B20461968734F4A01C1F3FA
:1011B000400302F020021343C1F3800243EA4203DA
:1011C000C1F3C00243EA8203C1F3401243EAC203FF
:1011D00001F0100119430FF0CAFB042269462046B2
:1011E0000FF0A7FB23683A78591C21601A70634BF3
:1011F000204619886429A8BF64210FF0B8FB962DFA
:1012000051D123685A1C226002221A7023687A780E
:10121000591C21601A700822193E96FBF2F22368CD
:1012200082F30402591C216020461A7001A90FF0B4
:1012300080FB236820465A1C226018221A70504BEB
:1012400019680FF080FB002123685A1C2260197076
:10125000B1E5EE2800F07A81F0287FF46CAD494DBD
:101260002046A9890FF083FB6989D3E6464A12F824
:10127000013F002B66D02168481C20600B70F6E708
:10128000BBF1070F0BD802AB1AF8032001239340E0
:10129000B8F80020134214BF012000206CE7584624
:1012A00008F07EF868E7002120460FF060FBB2E707
:1012B000364E328BB2F5006F39D8B2F5806F38D820
:1012C000B2F5007F2CBF0220012014F0F1FB014693
:1012D0004FF07E5014F0F4FC002507467319196D89
:1012E000384614F039FC16F003FE043581B220466E
:1012F0000FF03DFB0C2DF1D10025254F254EEB19AC
:10130000F169586914F0DCFC16F0F2FD043581B285
:1013100020460FF02CFB0C2DF1D1002120460FF0C0
:1013200026FB002120460FF022FB002172E6082058
:10133000CBE70420C9E7184813F032FE0023164912
:10134000834201DB002136E522685D5C561C266085
:1013500001331570F4E700BF8817002090170020B4
:10136000B0170020C41200202C1F002070000020A5
:1013700088050020FC1700200A1A0020DC0E00203F
:10138000A41900206E160020C58F01084412002009
:10139000800F0020942E0020011F002054180020F0
:1013A000301800205B69E8B2984700283FF414AE7B
:1013B000336857F825009B68984701460DE60025DD
:1013C0002F46884E22683178501C20601170337887
:1013D000AB42B7D9002120460FF0B5FA00212046D4
:1013E0000FF0C5FA236800215A1C226020461F70A6
:1013F0000FF0BDFA002120460FF0B9FA0021204677
:101400000FF0B5FA0135E2E737F8151020460FF076
:10141000AEFA0135B378AB42F6DC93E70025724EA5
:10142000724FF7E7002120460FF08DFA7DE7704DEF
:10143000204629880FF09BFAA98820460FF097FADA
:101440002989E7E56B4D2B68D9782368581C206003
:1014500019702B6899792368581C20601970002333
:101460002A681A44517A22680133501C032B2060E9
:101470001170F5D12B6820461A7B2368591C216016
:101480001A702B681A782368591C21601A702B680F
:101490005A782368591C21601A702B68D9890FF07B
:1014A00066FA2B6820461A7A2368591C21601A7044
:1014B0002B685A792368591C21601A702B681A7995
:1014C0002368591C21601A702B68DA792368591C2B
:1014D00021601A702B681A7C2368591C21601A70CD
:1014E0002B685A7C2368591C21601A702B68598A12
:1014F0000FF03DFA2B682046998A0FF038FA2B68D6
:10150000D98A87E50B685A1C0A6001221A7019E70C
:10151000394D05F1780628780BF06CF92368027ACA
:10152000591C21601A7023686A78591C21601A704E
:101530002368AA78591C21601A702368EA78063556
:10154000591CAE4221601A70E5D1FBE60B682A4DAA
:101550005A1C0A60142205F178061A7028780BF0DC
:1015600049F9074668790BF045F923683A7A591C1E
:1015700021601A7023682A79591C21601A70236827
:10158000027A0635591CB54221601A70E6D1D9E6B7
:1015900000261A4B03F5967122680A33501C20600E
:1015A0001670226813F80A0C551C2560107022680A
:1015B00013F8090C551C25601070226813F8080CEC
:1015C000551C25601070226813F8070C551C256007
:1015D0001070226813F8060C551C99422560107093
:1015E000DAD1AFE6C4120020D81500203A19002045
:1015F000AC210020300D00207C1800205C20002051
:101600000025934E0B68327A591C21601A70F18ABA
:1016100020460FF0ACF9718A20460FF0A8F9B18A84
:1016200020460FF0A4F92368727B591C21601A70C0
:10163000F18B20460FF09BF9318C20460FF097F983
:101640002368327E591C21601A702368B27E591CAF
:1016500021601A70317F204601EB8101490001F5BC
:101660007A710FF084F9236829465A1C22602046BB
:101670001D700FF068F923685A1C22601D702368E2
:10168000F27E591C21601A702368727E591C2160F9
:101690001A7023685A1C22601D7023685A1C22602D
:1016A0001D7023685A1C22601D7023685A1C22601A
:1016B0001D7023685A1C22601D7057E4236816F8B9
:1016C0001510581C06EB4502206019705178204611
:1016D00001EB810101EB810101F2EE210FF047F9ED
:1016E0000135BB78AB42E9DC2CE60025594F5A4E58
:1016F000F7E70822564920460FF01BF922E6574D1E
:10170000574F05F12006002395F90220D91991F9C8
:101710000610914200F0A1810833202BF6D1083544
:10172000AE42F0D10EE600250B6820465A1C0A6036
:1017300029461D700FF007F9294620460FF003F9DE
:101740002946FFF719BB0B685A1C0A600121197062
:10175000444B2268987855182560107022685018FC
:1017600020601170404A11782268501C206011706E
:1017700019884FE43D4B1B68DB69984741F2D4530D
:1017800030B917F80380054607463346FFF75CBBC0
:10179000002517F803802F460323FFF755BB17F8E2
:1017A000038041F29853FF58304BBF0A1B681B6AF5
:1017B0009847056804236D08FFF746BB41F2D453F0
:1017C000FFF73DBB41F2D453054617F803800746A7
:1017D0000346FFF739BB00252F46A8462B462A466D
:1017E000FFF733BB224B22681978501C2060117020
:1017F00022685978501C206011709A782368591C0F
:1018000021601A701B4BD98804E41B480B68C2790D
:10181000591C21601A702368591C21601A70174BDB
:101820009A782368591C21601A70154B93F8282068
:101830002368591C216000211A7023685A1C2260F9
:1018400019702368C279581C20601A7060E400BFC8
:101850008E0C0020D81500205E190020802F00205B
:10186000A42F0020443000208C0C0020C42F002026
:10187000231F0020901700209E2100208821002097
:10188000880500200025834E0B687278591C216062
:101890001A70814B814F1A7823682046591C2160A9
:1018A0001A7023683A79591C21601A702368BA7833
:1018B000591C21601A7039880FF059F8798A20462E
:1018C0000FF055F8236820465A1C22601D702368CB
:1018D000FA78591C21601A7023683279591C2160EA
:1018E0001A702368F278591C21601A7023683278C4
:1018F000591C21601A70718B0FF039F8718A2046DB
:101900000FF035F82368327D591C21601A70644B42
:101910009A782368591C21601A7023685A1C226027
:101920003C22F3E50025002120460FF020F800219D
:1019300020460FF01CF8002120460FF018F823680D
:10194000584E5A1C22601D703368204693F846207A
:101950002368591C21601A70336893F84720236864
:10196000591C21601A7023685A1C22601D7023685C
:101970005A1C22601D7023685A1C22601D70236847
:101980005A1C22601D703368198F0EF0F0FF336807
:101990002046D98E0EF0EBFF3368204693F82D20B9
:1019A0002368591C21601A7023685A1C22601D701C
:1019B0003368598E0EF0DBFF33682046998E0EF0A7
:1019C000D6FF294620460EF0D2FF3368204693F812
:1019D00051202368591C21601A7023685A1C226008
:1019E0001D7023685A1C22601D7023685A1C2260D7
:1019F0001D7023685A1C22601D7023685A1C2260C7
:101A00001D70336893F855202368591C21601A70A3
:101A1000336899890EF0ABFF33682046598A0EF07F
:101A2000A6FF33682046198B0EF0A1FF336893F8A8
:101A300030202368591C21601A7023685A1C2260C8
:101A40001D7026E6184B1A780B68591C21601A7015
:101A500023685A1C2260FF2258E523682046591C3F
:101A600021601A7029880EF082FF2368EA78591CD9
:101A700021601A7023682A79591C21601A70236822
:101A8000AA79591C21601A7023686A79591C21604F
:101A90001A7044E61E16002080170020B0170020A0
:101AA0000A1A002088170020FC150020002310B51A
:101AB000084A52F8331002EBC304884203D00133C2
:101AC000042BF6D110BD0021C162A18042F8331071
:101AD000F8E700BFA42F0020002310B5064901EB52
:101AE000C30292F90240844203D00133042BF6D1A1
:101AF0000022104610BD00BF802F0020F8B5222222
:101B000004460021023016F00CFB0022234605217A
:101B100004251046114FD65D0132042A9E70D970FB
:101B20001D719871597103F10803F4D101202080CF
:101B3000FFF7D2FF08B14023038094F90230142B41
:101B400005D10020FFF7C8FF08B10123038052230D
:101B500084F8223064232384F8BD00BFE08F01089D
:101B60000023F0B51D460D4A0D4E1370042BD9B25B
:101B700003D105B1137000200CE05F1C06EBC30419
:101B800036F8333001311842C9B24FF0010502D0A6
:101B900020461170F0BD3B46E8E700BFB81D0020AD
:101BA000802F002018280BD80C22064B02FB003097
:101BB00090F82C0E28B10123013803FA00F0704789
:101BC00000207047B8810108024A136823EA000028
:101BD00010607047A4190020024A1368184310606F
:101BE000704700BFA41900207047F8B55A4BDA8837
:101BF000B2F57A6F84BF4FF47A62DA801A89B2F54F
:101C00007A6F84BF4FF47A621A815A89B2F57A6F7B
:101C100084BF4FF47A625A819A89B2F57A6F84BF91
:101C200000229A81DA899989B2F57A6F84BF4FF4DC
:101C30007A62DA811A8AB2F57A6F84BF00221A8238
:101C40005A89914228BF0022198A28BF5A81DA890D
:101C5000914224BF0022DA819A78012A08BF5A7083
:101C6000587804BF3D490A700328B8BF0320587054
:101C70003B4B93F84C300A2B45D00C2B0CBF394C06
:101C8000394C012A03D10A2B14BF384C384C394E39
:101C9000B378022B97BF384A384D02EB8302D2F853
:101CA000585F3279002A30D0013B032B0BD82946EC
:101CB0004FF07E5014F004F816F01AF93388984269
:101CC00028BF184630802E4B22209A782D49012AB1
:101CD00004BF00229A702C4B5A78022A84BF00223B
:101CE0005A705A7800FB021228490A601A78862135
:101CF000012A84BF00221A701B78254A01FB0323A6
:101D0000244A1360F8BD244CBBE713F0D1FE2146F2
:101D100013F022FF0746114E3478204613F0C8FE18
:101D2000394613F019FF0146284614F0D1F800286F
:101D3000C9D03946284613F0C3FF14F0E9F810283B
:101D4000A8BF10200128B8BF0120C3B29C4298BF91
:101D500004463470B7E700BF1E160020801700202D
:101D6000942E00200AD7A3396F1203396F12833AD9
:101D70000F506E3AB0170020B88101086F12033877
:101D800044300020861A00200A1A0020300D00205E
:101D90004A1F0020881700205304E9382DE9F84332
:101DA000204D214EA8462B8AAF891F400FB9BDE8B0
:101DB000F883B7FA87F24FF00043D340DB4399B280
:101DC0001F40A2F11B03A8F81010042BEED8DFE887
:101DD00003F024211E190300746A84B10023013C1E
:101DE000A4B27362D6F82090B9F1000FDED0D9F812
:101DF0000030484621469847D9F80490F4E7AC8D66
:101E0000A4B2EFE73068A98E03689847CEE7706800
:101E1000298FF9E7B068A98FF6E7F068B5F84010A8
:101E2000F2E700BF00040040F40D0020002310B5CD
:101E3000054901EBC3021479844203D00133042B1A
:101E4000F7D10022104610BD1C9101082DE9F04188
:101E5000B74A1178A1F11703022B0AD9B54B03EB4E
:101E6000C10393F8841F21B1D3F8883F0BB917231E
:101E700013700020FF250146AF4C025B0319D60703
:101E800040F1C6800131C9B2530803F07733960898
:101E900006F03336D31A9B1BD60806F011369B1B6F
:101EA00003EB231303F00F3393FBF5F6C6EB062683
:101EB0009B1B012B07DD022B40F0AF8002F081025B
:101EC000812A40F0AA8008302028D6D10139022981
:101ED00000F2A38080200CF02FFC984B4FF47A6026
:101EE0001D4600214FF0640E4FF0060C03F5867777
:101EF0005A88B2F57A6FB3F84C2088BF5880B2F593
:101F00007A6F9A8888BFA3F84C00B2F57A6FDA88A6
:101F100088BF9880B2F57A6F88BFD9809A88DC88AC
:101F2000944293F8712028BF9980013A632A93F86C
:101F3000722088BF83F871E00132D2B2092A4FF0D3
:101F4000000288BF83F8721003F16B040CFB0236A9
:101F500014F8018FB67A0132B04528BF2170032AE8
:101F6000F4D186339F42C3D1754CA378042B0AD198
:101F70004FF480500CF0E0FB238BB3F57A7F3CBF2D
:101F80004FF47A732383A37833B92388B3F5F07FB2
:101F900084BF4FF4F0732380FFF727FE69488178F0
:101FA000092903D011B110300EF062FC6648C179E6
:101FB000092903D011B108300EF05AFC634C644A71
:101FC00023681A4012B943F0080323602368D80736
:101FD00002D560480CF0B0FB2368590402D55E4876
:101FE0000CF0AAFB23681A0702D55C480CF0A4FB8E
:101FF00023689B0402D55A480CF09EFB2268594B7B
:1020000012F400420DD00022DA7383F823200BE093
:1020100093F90230142B7FF437AF4748FFF76EFD7A
:1020200058E7D97B0029F0D1197E00296FD05A7E5C
:10203000032A6CD05B7E013B012B71D8072007F08F
:1020400017F810B1072006F0D9FF474D00242E469F
:1020500063195A796AB1605D002866D00023F75C85
:10206000F118974202D1497900295ED10633782BC5
:10207000F5D10634782CEBD101200CF05DFB40202B
:102080000CF05AFB4FF400700CF056FB4FF48060DC
:102090000CF052FB4FF400500CF04EFB4FF480401C
:1020A0000CF04AFB4FF480300CF046FB4FF400304C
:1020B0000CF042FB4FF480200CF03EFB2B480CF060
:1020C0003BFB4FF400100CF037FB4FF000700CF0AE
:1020D00033FB4FF080600CF02FFB254C4FF000607D
:1020E0000CF02AFB4FF000500CF026FBE38D2BB1D7
:1020F00094F82A00FFF79AFE00B9E0851D4B1A6894
:1021000012F07F4F1CBF00221A60BDE8F081002250
:10211000AA816A82A5F89220A5F89820002989D181
:1021200000232B83A5F89E3088E706F067FFA0E721
:1021300034190020B8810108802F00204A1F002098
:10214000B0170020882100209E2100208C1700203D
:10215000096000020860000209200002016000021C
:10216000094000028E0C00207C1800202000100086
:10217000880500203C1F00202DE9F84F01275C4C0A
:10218000DFF8C881DFF8C891A4F118004045C0F01D
:10219000A280FFF75BFE574BDA7B012A00F09D809F
:1021A000022A40F09C80544A9279002A0CBF2022D7
:1021B000282286205149524C4A601A7851495B784E
:1021C00000FB0212222122604F4A504D01FB0323E3
:1021D0004F4A136007F062F94FF0FF324D4B206811
:1021E0001A6006F023F907F00DF964224A484B4BB8
:1021F00001794B4C5143C831596001894A43C83277
:102200009A600022C3E90322C3E90522C3E9072239
:1022100083F8242083F82520424B236305F0AEFF8A
:10222000B4F8348094F836603F4C208813F040FCBA
:102230003E4913F091FC6860608813F039FC3B491B
:1022400013F08AFC2860207913F032FC384913F02F
:1022500083FC384913F078FB0CF080FB364B186098
:10226000404613F025FC0146344813F029FD344B59
:102270001860344B38461E60BDE8F88F15462E882E
:102280007EB3AA194A452CD2052E2AD934F8183C17
:102290006988C3F30B039942F0D16B7913F0030AF9
:1022A000ECD154F8101C95F804B00EF06AFB34F829
:1022B000183CBBEB133F18D134F8143CB21FC3F3E6
:1022C0000B039A42A8BF1A46A91D54F8100C15F02A
:1022D00004FF183458E71C4DD1E7282269E7202273
:1022E00067E754F8101C0EF04CFB0027F1E700BF25
:1022F000A4CB01080A1A0020B0170020000000201B
:10230000881700204A1F0020861A0020401800204D
:10231000300D00207403002068180020FC0E0020FF
:1023200088050020721600205620002017B7D138EB
:1023300035FA8E3CDB0FC93F58180020C0C9FB4856
:10234000601800205C18002002F8010894CF0108F2
:10235000000002081E4B70B55B681E4AC3F30803F9
:10236000ABB9EFF3118393B91B4D1C4B1068AC68EC
:1023700011688842FAD1196C8C42F7D84FF47A72FE
:10238000D96B02FB01F31B1BB3FBF1F31CE0EFF372
:102390001184102383F312880F4D1049AE682B6807
:1023A00013F4803F1EBF01238B63AE681568886BF2
:1023B000E2B282F311884FF47A72C96B284402FBAF
:1023C00001F39B1BB3FBF1F302FB003070BD00BFB8
:1023D00000ED00E01C2E002010E000E08805002049
:1023E00038B50446FFF7B6FF0546FFF7B3FF401BBD
:1023F000A042FAD338BD10B5044614F1FF3400D220
:1024000010BD4FF47A70FFF7EBFFF6E7EFF311839F
:10241000102282F312880749DBB20A6801320A608F
:10242000054A06499068086400208863126883F3AF
:10243000118870471C2E002010E000E08805002065
:10244000134BB3F844207AB99A6C93F84C300BB91B
:1024500080F00100D2B100280CBF10210021938828
:1024600012688B40136170475A6E7AB1196D50B182
:10247000B3F86800074A92FBF0F292B20A80012298
:1024800083F861207047088083F86100704700BFBF
:102490008805002020A10700014B98680EF07CBB46
:1024A00028300020014B58680EF076BB2830002001
:1024B000014B18680EF070BB2830002003685B6980
:1024C000184710B504462046FFF7F8FF00B110BDCD
:1024D0000A20FFF790FFF6E70368DB6818470368F8
:1024E0009B68184703685B68184703681B681847B0
:1024F000036870B55B6A06460C4615467BB90D4409
:102500002B1B002B00DC70BD3046FFF7E8FF0028D6
:10251000FAD014F8011B3046FFF7E7FFF0E7BDE8FB
:1025200070401847E4E710B5074C23689B6A98474A
:102530000022236840F2DC50BDE8104083F82E20D2
:102540001A6383F82D204BE77C2F002008B5FFF796
:10255000EAFF084B1B7813B1012B04D008BD064BD2
:10256000064ADA60FEE7064B064A1A60024B034A47
:10257000DA60F7E7491F002000ED00E00400FA05EB
:10258000F04F0020EFBEADDE012310B50D4A8340B1
:1025900092F86A4002EB80022340D06E69B10033AA
:1025A00018BF012340B1002B14BF002310238288E1
:1025B000016802FA03F30B6110BDB3FA83F35B0900
:1025C000F0E700BF88050020064B03EB8000C26ED9
:1025D00032B193881268D1680B4218BF1B04136193
:1025E000704700BF8805002008B50C4B19780129F9
:1025F0000CD00AD302290DD0FFF7ACFE084B00F532
:10260000F42000F59070186008BD00210020FFF74D
:10261000BBFFF1E70020FFF7D7FFEDE7201A00200E
:10262000241A002038B500240020FFF709FF064DCA
:10263000064B85F878401C70FFF7D6FFEC67A5F8CD
:102640008040C5F8844038BD88050020201A00204D
:10265000F0B440B1164B1B6813F4003306D0154B91
:102660001B78032B01D1F0BCDCE70023124A0C26B7
:1026700002F62C65294606FB03F4675D874204D009
:102680000133192BF7D1F0BC70470C4BD3F8840001
:1026900028B1224492F82D5E42789542F3D200226E
:1026A0002144C3F88410A3F88020DA67EBE700BF69
:1026B0003C1F0020481F0020B88101088805002029
:1026C0002DE9F04107460B2006F06AFE10B10A2002
:1026D000FFF7BEFF294CD4F88460002E31D0E36FA1
:1026E000BB422ED8B4F88050736894F878105A5DC5
:1026F00049BB002A38D04FF001083378204A013B0B
:10270000126808FA03F3134204D14046FFF798FE1B
:1027100084F8788001221B4B1A70FFF765FF4DB9D2
:1027200033785A1F012A01D9182B03D1FFF712FE63
:10273000154B186073685B5DFE2B10D10023A4F865
:102740008030BDE8F0817AB10020FFF779FE0023E8
:102750000C4A84F878301370FFF746FFEAE7FF2B46
:1027600003D1BDE8F0415DE75B5D42F2107202FB10
:1027700003730135E367A4F88050E2E78805002081
:102780003C1F0020201A00205C140020400040283C
:1027900030B4A8BF4020002302251424064A9D54CB
:1027A00002339918834201F8014CF8D3FF21D15428
:1027B0000E2030BC4CE700BF441A002010B5064C78
:1027C000228822EA00009042208002D00120FFF7F8
:1027D000DDFF208810BD00BF5418002010B5054C47
:1027E000228810439042208002D00120FFF7CEFFC4
:1027F000208810BD54180020012810B504460BD8BD
:10280000084B18708620084B00FB0430074B1860FB
:1028100005F00CFE05F030FE601CC0B2BDE81040B3
:10282000B4E700BF0A1A00204A1F002088170020C2
:102830002DE9F843A54B06461F78A54C17F0010774
:10284000A44D32D194F88880A8F10303012B00F243
:10285000D38007F08DFF002800F0CA8007F09EFFAC
:10286000C0B12B7D84F8887084F889709A4F002B52
:1028700000F083803B7039786B88AA884B43A4F8BA
:102880008C30642384F8913000234A43C4F8943098
:10289000A4F88A20914B1B78022B06D18E4B904FC7
:1028A0001B78BB8007F07AFFF88094F88830012B02
:1028B00000F0CF80C0F0B680022B00F0EA80EB7B06
:1028C0001BB3AF890FB3844B1B78F3B1384613F0B9
:1028D000EBF8844B8046986813F0EAF801464046CE
:1028E00013F030F8804913F037F98046384613F07A
:1028F000DFF80146404613F0E3F913F009FB002826
:1029000000F3D380022384F889302A7A94F888303F
:10291000632A21D8022B0AD194F8901039B90121E9
:1029200084F890106421C4F8946084F8911094F8AD
:10293000901089B1D4F89410761A6C498E42DDBF9C
:10294000C2F1640256436A4A84F89120DEBF96FBC6
:10295000F2F6643684F8916094F88920934238BF87
:102960001346644A1370AA7B2AB1012B00F0A7809A
:10297000022B00F0A880BDE8F8835F4B2A881B88F3
:10298000B3FBF2F30133082BA8BF08235B4A3B706B
:10299000126892F972209A423FF46DAF002A3FF418
:1029A0006AAF4FF0FF314FF08609554ADFF8588182
:1029B00092F800C00CF1010202F00102624507D159
:1029C00008460028FFF657AFC0B2FFF715FF52E7E1
:1029D00009FB028E9EF972E010469E45F1D0002957
:1029E00003DABEF1000F08BF114682F00102E5E7ED
:1029F000B8F1030F3FF44EAF07F0D0FE00283FF4CC
:102A000049AF07F0B5FE00287FF444AF032384F8F4
:102A1000883084F88930304BA4F88A001870A4F804
:102A20008C0037E7344B697C1A88B4F88A305B1A1B
:102A30009A42344B29DC1A68D4F89830E97DD21ACE
:102A400064234B439A42FFF63AAF012384F888305F
:102A500035E7294B697C1A88B4F88C305B1A9A42A6
:102A6000284B0BDC1A68D4F89830297ED21A6423DC
:102A70004B439A42FFF623AF0223E7E7B4F88A10EC
:102A8000914202D2002284F888201B68C4F8983052
:102A900015E7194B1A88B4F88C309A427FF60FAFBD
:102AA000012384F88830174BEFE76428A8BF64201F
:102AB0002B7CC0B283422CBF0123002323E70820D4
:102AC000BDE8F843C4E50720FAE700BF301800204E
:102AD00088050020800E00206E0E0020600E002071
:102AE000620E0020700E00200000C8427F96980001
:102AF000806967FF481F0020D00E00208817002043
:102B00000A1A00201C2E00204A1F002080B5012137
:102B10000020FFF739FD01210846FFF735FD0121AF
:102B20000220FFF731FD1E4B93F89C3003F00503A4
:102B3000052B14D11B4B0024186813F0E9F91A4B2C
:102B40001A4F1D7806B2AC4222DB194B1B6893F872
:102B50002E300BB10FF0B4FA3220FFF74CFC0021FD
:102B60000846FFF711FD00210120FFF70DFD0021B0
:102B70000220FFF709FD3220FFF73DFC0020FFF7A0
:102B800023FD0120FFF720FD0220FFF71DFDF2E7E6
:102B9000304612F08DFF47F824000134D3E700BF20
:102BA00088050020A0170020C41200205C2F002000
:102BB0007C2F002038B50D46012104460846FFF75A
:102BC000E3FC00210846FFF7DFFC013CE4B2FF2CE8
:102BD00000D138BD0120FFF7F7FC0020FFF7F4FC1F
:102BE0000120FFF72DFC2846FFF705FC0120FFF729
:102BF000EBFC0020FFF7E8FC0020FFF721FC284653
:102C0000FFF7F9FBE1E738B50C460130C5B214F126
:102C1000FF3400D238BD32210520FFF7CBFF4FF43F
:102C2000FA70FFF7E8FB2846FA21FFF7C3FF4FF4DD
:102C30007A70FFF7E0FBEAE708B50A21FFF7E3FF48
:102C4000034B044A1A60044B044ADA6008BD00BF13
:102C5000F04F0020EFBEADDE00ED00E00400FA050D
:102C60002DE9F04F03278BB0FFF7F0F84C4E4D4B9A
:102C7000A3EB06081022002106A815F052FA4A4BD1
:102C80004A4ACDE904685A6002F188325A6001224A
:102C90008DF824203422DA60454B02221B886946D5
:102CA00004A8ADF800300BF029FD022269464FF66A
:102CB000FF700CF041FB4FF0000B81463D4CDFF8FC
:102CC000F8A054453CD300250AAC24F8245D022228
:102CD000214604A80BF012FD0222214648460CF0C2
:102CE0002BFB40BAC0430222ADF8080002A904A899
:102CF0000BF004FD079860B106ABC0F10402294651
:102D0000184415F00EFA06A904A80BF087FCCDE9CB
:102D100007509DF82430089A23B123490B6943F0EA
:102D200080030B61013F33D0002AA3D13378AC2B51
:102D300030D17378BE2B2DD10CF014FB68BB29E089
:102D4000A58802A9C5F30B05AB1DADF80830238893
:102D500004A8C3F30B02ADF80A201B0B06228DF862
:102D60000C308DF80DB00BF0C9FC062202A94846C4
:102D70000CF0E2FA8146A1682A4604A80BF0BEFCDA
:102D8000A16848462A460CF0D7FA1834814698E7DD
:102D9000002ACBD00520FFF74FFF0BB0BDE8F08F26
:102DA00000F80108000002080020024023016745E6
:102DB000149201088CCB010894CF0108022208B5B7
:102DC000044B9A73FFF74CFFFFF7D6F9BDE80840B4
:102DD0000120DBE40A1A00202DE9F04F9B4C99B04A
:102DE000237800902BB19A480369984780F001003E
:102DF0002070984B1A780292002A01F0D2800022AB
:102E00001A70009B944A03F5EC435F331360934BB5
:102E100093F89D400193009B002C5ED1002B61D064
:102E20008F4E8B4F8F4D019B93F8C2804445C0F26B
:102E3000A2808D4B8D4D1B78D5F800A00395002BFB
:102E400000F0C1808A4A177887F00107894A117813
:102E50000692282904D1884A1380854B1B78538019
:102E600001230024854EDFF8389233707C4B3146C5
:102E7000DA8B1B8C049222460593A9F1260B0AF5E6
:102E80009673444540F0A18033787D4C002B00F0D0
:102E9000BF80062006F084FA002840F0B980039B2A
:102EA00022691B68E3609B1AA268934205D901233B
:102EB000042084F82530FEF787FE069B1B78282B1C
:102EC00001BF704BDA886C4BDA80019B019A93F852
:102ED0000C31013382F80C3104E01BB1019B013C41
:102EE00083F89D40684F3B68D80405D5002006F064
:102EF00057FA08B906F048FB644B1B78022B00F028
:102F0000D180042B00F01D81012B40F0E480019B57
:102F1000009AD3F81031D31A002BC0F2DC8002F5EE
:102F20009C43019A2033C2F81031594B5A7C594BBB
:102F300033F812304A4A9B08527C1AB1C3F57F73AA
:102F400003339BB2019A019892F8A812D0F8CC02F0
:102F500002EB4104B4F8AA2201319A1A0244019802
:102F600001F00F01C0F8CC22A4F8AA3280F8A81210
:102F70001209494BEFE0072CD4BFA15DE1B2BB6859
:102F800033489847032C19DCC0B135F8241005EB01
:102F90008402431A4FF47A70584353885B1A90FBAB
:102FA000F3F040F6CA0300F57A709842A8BF1846BD
:102FB00040F2EE239842B8BF184680B2374B23F850
:102FC000140001342FE71F4640E777B13BF81400A7
:102FD000049DA84209D3059DA84206D849F824308B
:102FE000284D25F8140001344BE759F82400AAEBCA
:102FF00000000028F7DBE0B2CDE90823079106F0D6
:10300000D5F9DDE90712032C099BD8BF0A70E7E761
:103010000122174B04201A70FEF7DEFD039BE268C5
:103020001B6823619B1A6268934202D9002384F8CB
:1030300025300024134D05E0E0B206F0B7F925F87D
:10304000140001344445F7D137E700BF10160020C3
:10305000D815002011160020141600208805002025
:103060008E0C00207E250020FA0E00201C2E002051
:1030700008000020600E0020620E0020F90E0020E3
:10308000FC0E00203A1900208C170020FC150020AF
:103090009A0E0020AE0E0020BE0C00202606002056
:1030A0004C060020B44AB549D37B013B31F91300EB
:1030B000537C1BB1C0F53B60083000B2A0F57A70BC
:1030C00012F0F6FCAE4912F047FD12F021FFAD4BB5
:1030D00080F30A001880AC4B009ADFF8D8B29A420D
:1030E00005D99BF8022012B901228BF802209BF827
:1030F0000240002C76D0A54B06201D7806F050F932
:103100009BF82560824618B1A14A9279022A01D023
:10311000012E22D015F0020422D000244FF0020824
:103120009C4EDFF86C9205F001059BF82420052ADF
:1031300052D8DFE812F01700B300C300E300F0003C
:103140000A01FFF707F9944B1B68C01A934B98428A
:10315000C1DD00228B4B1A80BDE74FF00008DFE78E
:10316000A046DDE775B306F05BF9012807D16420BE
:103170003168B9F8022000FB0212CBF81420BAF132
:10318000000F0DD099F80620012A09D105F0E4FEC0
:1031900003228BF824204FF47A72CBF82020C4E766
:1031A000D4B93268DBF81410914207D205F0D4FE8E
:1031B00003228BF8242040F6B832EEE701228BF888
:1031C0002420B2E74FF48060BAF1000F63D0FFF71C
:1031D00005FB0022CBF81420B8F1000F02D04046C6
:1031E000FFF736FA06F01CF9644B3E68B3F9069017
:1031F0000546B9F5FA6FA8BF4FF4FA69B9F57A7FB9
:10320000B8BF4FF47A7916F48056DFF86C8100F07D
:10321000E280152006F0C4F8002840F0DC80604A07
:10322000147B002C40F0D780B8F81230D28899185F
:10323000494580F2C380A9EB0304A4EB020964248E
:1032400004FB09F4C3F5FA639B1A94FBF3F4E4B2AC
:103250004E4B544A64B21978002C1378B8BF6442BC
:10326000E6B201F001019646DFF84CC14E48002B52
:1032700000F0D280002900F0CF8098F81C30B342D3
:1032800000F2C1810123019A82F8143100238CF8E5
:1032900000300123D4E0FFF791FA9AE70CB1052240
:1032A0008DE799F8072032B1012A7FF43EAF05F08F
:1032B00053FE032283E705F04FFE36E714B10522E3
:1032C0008BF824205DB14FF003082B4AB2F912109D
:1032D0002A4A118051809180B9F80010D18032685B
:1032E000DBF81810914204D3304A12780AB9002D45
:1032F0003DD147F23052CBF82020DAE70220FEF72A
:103300006BFC06F041F93168DBF820200A44CBF869
:103310001C20042253E78CB13268DBF81C10914268
:10332000BFF45AAF224B187820B906F039F80028BC
:103330007FF452AF0220FEF747FCB0E73168DBF8BC
:1033400020200A44CBF81C2046E764203168B9F8F5
:10335000022000FB0212CBF8142000224FF4806000
:103360008BF824208BF80320FFF728FADDE6002CE9
:103370007FF4DBAE30E700BF8E0C00203A1900204E
:10338000AAF1823FBE0C0020404B4C0030180020B8
:10339000681800201C2E0020B821002060E31600D1
:1033A000901700203A1E0020081A0020ED19002076
:1033B00064000020FC0E0020091A00209B1A4B45D7
:1033C0007FF746AF6FF06304A3EB090904FB09F430
:1033D000A3F57A7339E76424B8F81430A9EB03092C
:1033E00004FB09F4C3F5FA6394FBF3F4642CA8BF5F
:1033F000642424EAE474E4B2002E3FF429AF1520DB
:1034000005F0CEFF00283FF423AFA14B1B7B002B20
:103410003FF41EAF64421AE70023019A82F8143188
:10342000002D7FF433AF01238CF80030DFF8B8C2F1
:10343000DCF800C09CF82CC0BCF1000F08BF63464C
:103440000370002900F00A81924B5978002900F09E
:10345000058191490978002940F000818F49097858
:10346000002940F0FB808E490978002940F0F68061
:103470008C490978C90600F1F1803968CA0605D57A
:103480009EF8002012B9002D00F0D1801A79530067
:103490004B2BA8BF4B23B242DBB203932DD80021A4
:1034A00040F2E6394FF0640C7F4BB8F8120093F805
:1034B00000A093F801B0DFF82C82C0F5FA6E6FF42B
:1034C0007A7738F9113002290CBF5A465246DF1973
:1034D000BFB24F4515D88718BB4240F39E801B1AD8
:1034E0009B1A0CFB03F3AEEB020293FBF2F2D2B297
:1034F0000E2A06D801310329E1D1039BB34200F221
:1035000096806A4E6A49706A20F0004012F0C2FC50
:10351000002800F08C803069654920F0004012F0EE
:10352000B9FC002800F08380B06B614920F00040B6
:1035300012F0B0FC00287AD05E4B1A680AB9009AE3
:103540001A601A680AB9009A1A60524A1B685188B0
:10355000594A4A2C1268C8BF4908D31A009A134422
:103560004FF47A724A43934202D901224A4B1A70AD
:10357000504B1A68514B1B78002A64D11F2B08D17D
:103580004D4B4F491B688A804FF47A72B3FBF2F3BC
:10359000CB804C4F4C4E787811F05CFE3AA3D3E9C7
:1035A000002311F0C1FE12F059F93378DC0740F125
:1035B0000681464B1B68D90640F10181394A1278D1
:1035C000D20600F1FC80DB0400F1F980404B1B784F
:1035D000002B40F0F4803F4B1B881C0500F1EF806E
:1035E0003D4B3E4C1B78002B00F08080002D3ED1DF
:1035F00000287DD03A4B009A1B689A4278D905F092
:10360000C3FF002378E0002D7FF440AE019B93F8C8
:103610001431002B7FF43AAE05E7821A9342BFF6CD
:1036200069AFD31A0CFB03F3A2F57A725DE7214A66
:10363000106828B120490B681B1A009803440B60DE
:103640000023136094E71F2BA3D101231C498B8017
:10365000194B1B689B1A009A134495E7174B1B786C
:103660001F2B01BF0022164B9A80DA8091E7009B46
:1036700018441B4B186094F81531002B3ED0FEF710
:10368000D1FFBEE7AFF300800000000080842E4130
:103690009017002080170020381E0020A11900205C
:1036A000391E0020F80E0020231F0020440F0020A8
:1036B0000000C842381A00203C1A0020600E00208A
:1036C000620E00201E1A0020301800208C170020E7
:1036D0003A1E0020541800206400002088050020B5
:1036E000301A00203A19002088170020002DC2D17E
:1036F0001020FEF7ADFF012384F815311F2005F0DF
:103700004FFE002840F0B38001463F4B3F4D9A8A60
:10371000DC8A35F9103089089342C4BF61F07F011B
:10372000C9B20130A342B8BF41F040010428F0D132
:10373000374C94F816318B4246D1364BB4F9180108
:103740001B68DA69344B92FBF3F303F5FF437F33D5
:10375000984206DC4FF47A7392FBF3F20244A4F829
:1037600018212E4B84F816111D78002D68D128469B
:1037700005F016FE70B384F81B5106F07FFD337818
:10378000DD0774D494F81A31002B70D1B4F91831D4
:10379000322B6CDD224B1A6812F0600267D10121D6
:1037A000204B84F81A11186894F81631572B40F002
:1037B000388404F0CEFB1C4BC3F8C40057E0009BD8
:1037C00018441A4B186099E70023A4F8183184F8BC
:1037D0001A31C6E7164B1860164B18603378D907B4
:1037E000D0D5154B1B78002B41D0144BDB78002B28
:1037F0003DD194F81B310133DBB2032B84F81B312C
:1038000035D905F0C1FEBAE78E0C00203A19002028
:1038100088050020BC1D002018FCFFFF640000206C
:10382000A41900208C170020942E0020301A0020AC
:103830002C1A0020341A0020FA0E0020FC0E002062
:103840005F2940F0C083B4F91871B7F5FA7F0EDB39
:1038500094F81A315BB9012284F81A21B24A136034
:10386000337813F0010500F09F8305F08DFEAF4B18
:103870001A68049312F0040F28D0AD4C94F81E314E
:1038800093B13378DA070FD5AA4BB3F90620AA4BC8
:103890009B8A9A4208DD002005F082FD20B9322380
:1038A00084F81E01A4F820310D2005F079FD0028D0
:1038B00000F0618494F822312BB994F81C3113B9CB
:1038C0003223A4F82031012384F8223100244FF060
:1038D00000430CAF0AADDFF8B0B20C940A947C60E0
:1038E0006C600F940E93DBF800309C42C0F253845E
:1038F0000024DFF89882DFF898A2D8F800309C42C4
:10390000C0F298840023EA5CF95C4A40EA5401332F
:10391000082BF8D195E80300884B83E80300049B4B
:103920001B685B0200F1A184142005F039FD844B73
:1039300000F001001870834B1B78002B00F0BA8454
:10394000012005F02DFD804E804C20B9804BDB78A6
:10395000002B01F0778023689F0741F17380338843
:1039600013F0010541F073800120FEF737FF029547
:10397000022005F015FD002801F06D80029B002B50
:1039800001F069800120FEF719FF33889D0702D4FA
:103990000220FEF723FF31886E4D11F0030101F084
:1039A0005F8001210846FEF7EFFD4FF4FA63C5F88A
:1039B00010311C2005F0F4FC30B9674A1378580721
:1039C00044BF23F004031370236813F00A0F15D0CB
:1039D000042005F0E5FC002801F0498033885906F1
:1039E00002D44020FEF7FAFE092005F0D9FC28B1E8
:1039F00004F0C2FD10B10A20FEF72AFE052005F0F2
:103A0000CFFC002801F038804FF48070FEF7E6FE0E
:103A1000524B1B78082B01D00E2B02D14020FEF711
:103A2000CDFE252005F0BCFC10B12068C0F340009D
:103A30004B4B1A78824205D018B10021494AC2E99D
:103A400000111870082005F0ABFC384B1F680028E7
:103A500041F01880C7F30073434A444C1178137047
:103A60009942019B009AD3F8983218BF4FF07E50CC
:103A7000A2EB030347F230521CBF3D49086093425A
:103A8000A8BF1346B3F57A7FB8BF4FF47A73394AAB
:103A900028481380019BB0F906801A46009B0290CB
:103AA000C2F898320122344B1A70344A1168CA891C
:103AB000904580F2EA874FF07E522260304A4FF004
:103AC000000B92F904001C49002814BF01234FF099
:103AD000FF33019313784D8A92F801A0294C00938B
:103AE0000391029B33F91B90A9EB05000028B8BF96
:103AF0004042B0F5FA7FA8BF4FF4FA70BBF1020F55
:103B000000F0D887009B9842CCBFC01A002011F06B
:103B1000CFFFA94544F82B00C0F2DA870BF1010B67
:103B2000BBF1030FDDD135E02C1A00208C170020EB
:103B3000880500203A1900208E0C0020F00E00208D
:103B40003A1E0020001F002054180020FC170020FF
:103B5000FC0E0020700000203018002034190020D6
:103B6000EC190020F0190020B1190020A81900203C
:103B700068000020DC1D0020D41D0020300D002036
:103B8000231F0020A41200207418002078180020A1
:103B90007C18002017F4805700F0A287B8F5FA6F60
:103BA0004346A8BF4FF4FA63B3F57A7FB8BF4FF42A
:103BB0007A73A3F57A73AB4A92F89010904629B1C4
:103BC00092F891205343642293FBF2F34FF0640E7A
:103BD00093FBFEF2A449501C31F912C031F91000D8
:103BE0006FF0630101FB0233A0EB0C00584390FB24
:103BF000FEF0604400B211F05BFF8146E06027B345
:103C00009A4BDB780BBB9A4B152093F80CA005F070
:103C1000C7FB0746BAF1000F40F07887A8B1954975
:103C2000484611F08FFE12F073F94FF47A7300B228
:103C3000000390FBF3F3C5F5FA6000B2584340F37C
:103C40000F30284411F034FFE06033885A0640F109
:103C5000A6812268C8F89C226268C8F8A02240F6B3
:103C60000302134214BF0023A368834AC8F8A43296
:103C70005368D2F800A00093804BD2F808805968AE
:103C800000980191D1689A681F68D3F80C9003924C
:103C9000029111F059FE03990446019811F054FE67
:103CA0000146204611F058FF02998346009811F012
:103CB00049FE03990446019811F044FE014620464E
:103CC00011F04AFF41460490504611F03DFE49462E
:103CD0000446384611F036FE0146204611F03CFFFE
:103CE00041460646504611F02DFE494604463846E8
:103CF00011F02AFE0146204611F02EFF054601462E
:103D0000304611F021FE594611F01CFE049911F0C5
:103D100019FE4FF07C5111F01FFF414606900298AA
:103D200011F010FE49460590039811F00BFE059A1C
:103D30000146104611F010FF069B0146184611F08F
:103D400003FE4F4C00992060504611F0FDFD019993
:103D50000590384611F0F8FD059B0146184611F014
:103D6000FBFE31460590049811F0EEFD594611F026
:103D7000EBFD294611F0E8FD4FF07C5111F0ECFE0F
:103D8000059B0146184611F0DDFD04996060584618
:103D900011F0D8FD00998346504611F0D3FD4946F5
:103DA0008246039811F0D0FD0146504611F0D4FE32
:103DB00029468146584611F0C5FD314611F0C4FD33
:103DC0004FF07C5111F0C8FE0146484611F0BCFD91
:103DD0004146A060029811F0B7FD0199804638462F
:103DE00011F0B0FD0146404611F0B6FE31460746DF
:103DF000584611F0A7FD294611F0A6FD4FF07C5161
:103E000011F0AAFE0146384611F09EFD0EA9E060B1
:103E1000204604F0F7FB159B124C0093119BD4F83D
:103E2000A4220193149B11460293109B1046039306
:103E3000079211F089FDD4F8A05204902946284633
:103E400011F082FDDDF84CA081460199504611F039
:103E50007BFD0146484611F07FFE0399814602989A
:103E600010E000BF8805002082190020FC0E002011
:103E70009017002000007A44340000204400002005
:103E80005400002011F05EFD049911F065FE01461A
:103E9000484611F059FD0E9FDDF84880DDF85CB012
:103EA000814641463846D4F89C6211F04DFD009998
:103EB00011F048FD594611F045FD314611F04CFE18
:103EC0000146484611F040FD41460690384611F043
:103ED00039FD31460746304611F036FDDDF8588091
:103EE000DDF83C9005900199504611F02BFD0146FC
:103EF000059811F031FE49468246404611F024FDF6
:103F0000049911F029FE0146504611F01DFD594655
:103F10008246384611F016FD009911F015FD29462C
:103F200011F01AFE0146504611F00EFD039982462B
:103F3000029811F009FD314611F00EFE4946064681
:103F4000404611F0FFFC294611F006FE01463046BE
:103F500011F0FAFC014611F0F7FC009905463846CD
:103F600011F0F0FC594611F0EFFC079A114611F0E0
:103F7000F3FD0146284611F0E7FC40F60301069BDD
:103F8000BD4AC4F89C321360BC4BC4F8A0A2C4F86C
:103F9000A402C2F804A01B88194208BF906006F072
:103FA00065F819B0BDE8F08F0F20FEF751FBFA3F1E
:103FB0002020A4F8187184F81A51FDF705FE40205E
:103FC000FDF702FE53E46F2926D1B4F91831B3F599
:103FD000FA7FFFF64CAC94F81A31002B7FF447AC13
:103FE000012284F81A213278D20712D406F046F959
:103FF000A34B1B684BB9A34B1B68B3F5805F7FF4E1
:1040000036AC3B78002B3FF432AC002384F81A31F5
:104010002DE49D4A13602AE40022994B1A60FFF7B1
:10402000AEBB400716D55A2B14D194F81C3123B1DE
:1040300084F81C2184F81D1119E494F81E3183F0D2
:10404000010384F81E311BB10B20FEF701FB0EE4C7
:104050000C20FAE75D2B05D05E2B07D05B2B0AD135
:10406000012000E00020FEF7C7FB00E40320FEF77C
:104070008DFBFFF7FCBB562B01D1FEF79FFE94F89A
:104080001631972B05D14FF4C872804B1A80FFF779
:10409000EEBBA72B06D17E4A137843F004031370BE
:1040A000FFF7E5BB754AB73B128812F0030F37D014
:1040B00000220E92072B3FF6DAAB01A252F823F052
:1040C0000D4100086F3800086F3800086F3800088D
:1040D000E14000086F3800081B4100081341000848
:1040E0000223ADF83A306B4BBDF838105A890A44B8
:1040F0005A81BDF83A109A890A449A81FEF75EFE09
:10410000B4F81831FA3BA4F818317EE74FF6FE7385
:10411000E7E70223ADF83830E5E74FF6FE73F9E73D
:10412000072B3FF6A4AB01A252F823F05741000839
:104130006F3800086F3800086F3800084D410008DC
:104140006F3800085F4100085B410008002006F05E
:10415000FBFAFFF78CBB0120F9E70220F7E72221E9
:104160004D4B4E4A5B7801FB03234D4A136005F02B
:1041700095F9FFF77CBB94F81C31002B3FF4A6ABFC
:10418000337813F0010302BF84F81C31012384F853
:104190001D31FFF79BBB0626424BDFF81481E15C23
:1041A0000EA84E4316F808A006EB080951460AF07F
:1041B000FAFCA0B3504605F0F3F858B15146384622
:1041C0000AF0D8FC284618F806100AF0E0FC013482
:1041D000FFF789BBB11C414499F8010005F0B8F81C
:1041E0005146039030480AF0DEFC30B1039B2A466A
:1041F0003946484605F082F8E9E7FEF7ABF811F0DA
:1042000019F81BA3D3E9002311F014FB0028DED01A
:10421000039B002BDBD118F806102348D5E7BAF131
:10422000270FD4D8B11C414499F8010005F090F84B
:104230000346DCE71D4B3846E65C062303FB06A677
:1042400096F80590013449460AF0ADFC494683468C
:1042500028460AF0A8FC8BEA0003DBB22A4639465E
:10426000304605F04BF8FFF748BB0120FFF75FBB76
:1042700000000000D0125341A41200205418002066
:104280002C1A0020A4190020341A00201C1A002027
:10429000F80E00206E1600200A1A0020861A002050
:1042A000300D002008190020AC060020F418002072
:1042B0007C1800201F2005F073F800287FF440AB25
:1042C000B24BB34F1C68B34B1B7803933B6801336D
:1042D00038D1054681464FF0010BAF4ECDE90E00B7
:1042E000DFF8BC82DFF8BCA20EABADF8400038604E
:1042F000C6F82C0119460A224046049313F0DEFE4C
:10430000049BD0B1B8F80600E9B280BB98F803204E
:10431000013A02EB4202524412F8992C012A26D0AB
:104320003A6802F1010C06EBC202C7F800C082F83D
:104330003411C2F8300182F835B101351E2D08F173
:104340000A08D7D14FF00008944BD3F80090904B57
:104350001B68984517DB039B002B3FF4F1AADFF89D
:104360003892002709F5087ADFF8348207E2D6F898
:104370002C21501C06EB8202C6F82C0182F8201278
:10438000A2F82292D9E70A23DFF81CB24FEAC80547
:104390000BEB050797F804A0814A03FB0AF3591CAD
:1043A0001144D05CD61804F0D3FF40B1F3787D49B6
:1043B000013B03EB43020A4412F89A6C2EB9002227
:1043C000794BEA5008F10108C1E755F80B20A9EB39
:1043D0000202002AA1BF09F5FA7245F80B2001225A
:1043E0007A71039A002AEDD06E4A03EB430313441B
:1043F00013F8992C002AE5D10A21694A01FB0A2AFF
:104400009AF8042069490432D2B231F91210684A8C
:10441000528A02F1C800814231DD13F898AC7B79F1
:10442000002BCFD0BAF1000FD4BF01200220FEF73D
:10443000ADF9731E5F4D1F2B4AD8DFE813F02F0034
:104440004F006600760087008E00BD00D700F100A7
:10445000FC0007014900760080008E00BD00D700F7
:104460009C00CC00E60012011D01480149002F000C
:104470003D004F005C0049001D012E013B01C83A80
:10448000914204DA13F8981CC1F1000AC7E701232E
:10449000454A7B7109F5FA73AB5093E7E17819202F
:1044A0005144FF29A8BFFF210129B8BF0121E170B4
:1044B00004F0E0FF192E0BD021791A205144FF2976
:1044C000A8BFFF210129B8BF0121217104F0D2FF4B
:1044D000286803F08DFE00237B7173E7A1791B2010
:1044E00051446429A8BF642121EAE171A17104F05B
:1044F000C1FF1B2EECD0E1791C2051446429A8BFD8
:10450000642121EAE171E171E0E761788A44BAF15E
:10451000640FA8BF4FF0640A2AEAEA7A84F801A07F
:1045200004F0BCFF51460320D0E7A17A0D2051448E
:1045300081F30801A17204F09DFF0D2EC8D0617AAD
:104540000E20514481F308016172BFE7E17A052032
:10455000514481F30801E172B8E72B680F20997B81
:104560005144C829A8BFC82121EAE171997304F018
:1045700081FF0F2EACD02B681220197A5144C82924
:10458000A8BFC82121EAE17119729FE7300D002010
:1045900074030020FA0E0020880500201C2E002045
:1045A0005C200020B0920108B80600203A190020D3
:1045B0008E0C0020881700202B681020D97B5144D6
:1045C000C829A8BFC82121EAE171D97304F052FFBC
:1045D000102E3FF47DAF2B681320597A5144C8291F
:1045E000A8BFC82121EAE17159726FE72B68112039
:1045F000197C5144C829A8BFC82121EAE171197466
:1046000004F038FF112E3FF463AF2B681420997A21
:104610005144C829A8BFC82121EAE171997255E720
:104620002B680920197D5144C829A8BFC82121EA57
:10463000E17119754AE72B680A20597D5144C82950
:10464000A8BFC82121EAE17159753FE72B680B200B
:10465000997D5144C829A8BFC82121EAE171997503
:1046600034E7617915205144FF29A8BFFF210129B2
:10467000B8BF0121617129E72B681E20598A514476
:10468000B1F5FA6FA8BF4FF4FA6121EAE1715982DE
:1046900004F0F0FE1E2E3FF41BAF2B681F209989FB
:1046A0005144B1F5FA6FA8BF4FF4FA6121EAE17104
:1046B00099810BE72B682020198B5144B1F5FA6FD3
:1046C000A8BF4FF4FA6121EAE1711983FEE62B6875
:1046D000172093F8471051446429A8BF6421012989
:1046E000B8BF012183F84710F0E60A231AF8272003
:1046F000BD005343591C414418F8030008EB030B59
:1047000004F026FE002839D09BF80330BD4A013B57
:1047100003EB4303134413F89A6C7EB39BF8042015
:10472000B9490432D2B2554431F91210B5F9022018
:104730008A4223D013F8992C6980012A4FD10C2E7C
:1047400013F8983C04D1B14A1279002A18BF062305
:1047500040F633058D42A8BF0D464FF49661B5F57E
:10476000617FB8BF4FF4617591FBF3F1A5F56175F9
:104770000C2E95FBF1F508D0182E1AD00137D9F878
:104780002C319F42B1DBFFF7DBB8A04BEDB25B7879
:10479000AB42F3D0284605F0D7FF2946304604F057
:1047A00069FE0135EDB2002DE8D02846FDF7EEFF99
:1047B000E4E7E9B2C8290D46A8BFC825944BEAB280
:1047C0001B68187F8242D9D02D1A082095FBF0F57E
:1047D0001A7701353046EDB204F04CFEE3E7BBF842
:1047E0000630002BCAD0002AC8D1A1F2DC55BBF894
:1047F00008104D434FF4FA7195FBF1F101EB030BF7
:10480000731E834D1F2B39D8DFE813F020003C00C6
:10481000520060006D0072008900A000B700C10066
:10482000CB0038006000680072008900A0007F00A3
:104830009600AD00D500DF001001380020002D00EB
:104840003C0049003800DF00EF0004015946FF2911
:10485000A8BFFF210129B8BF01211920E17004F090
:1048600009FE192E0AD05946FF29A8BFFF210129A8
:10487000B8BF01211A20217104F0FCFD286803F063
:10488000B7FC7BE759466429A8BF64210129B8BF5A
:1048900001211B20A17104F0EDFD1B2EEED0594625
:1048A0006429A8BF642121EAE171E1711C20E3E7DA
:1048B000BBF1640FA8BF4FF0640B2BEAEB7B84F8CD
:1048C00001B004F0EBFD59460320D5E78BF3080156
:1048D000A1720D2004F0CEFD0D2ECFD08BF3080178
:1048E00061720E20C8E78BF30801E1720520C3E76F
:1048F0005946C829A8BFC8212B6821EAE1719973DC
:104900000F2004F0B7FD0F2EB8D05946C829A8BF14
:10491000C8212B6821EAE17119721220ACE75946CF
:10492000C829A8BFC8212B6821EAE171D9731020DA
:1049300004F0A0FD102EA1D05946C829A8BFC82157
:104940002B6821EAE1715972132095E75946C8296D
:10495000A8BFC8212B6821EAE1711974112004F065
:1049600089FD112E8AD05946C829A8BFC8212B68B5
:1049700021EAE171997214207EE75946C829A8BF3F
:10498000C8212B6821EAE1711975092074E759469D
:10499000C829A8BFC8212B6821EAE17159750A20EE
:1049A0006AE75946C829A8BFC8212B6821EAE171E6
:1049B00099750B2060E75946FF29A8BFFF210129FF
:1049C000B8BF01211520617156E7BBF5FA6F594652
:1049D000A8BF4FF4FA612B6821EAE17159821E20C9
:1049E00004F048FD1E2E3FF449AFBBF5FA6F59465F
:1049F000A8BF4FF4FA612B6821EAE17199811F2069
:104A00003AE700BFB09201083A1900200A1A0020C4
:104A100088170020BBF5FA6F5946A8BF4FF4FA611A
:104A20002B6821EAE1711983202025E75946642982
:104A3000A8BF64210129B8BF01212B68172083F882
:104A4000471019E70120FDF7B9FEFEF791BF0023DB
:104A50000293FEF78DBF0220FDF7B0FEFEF79BBF6D
:104A60000120FDF791FD42F21073FEF7A0BF402038
:104A7000FDF7A4FEFEF7B8BF4FF48070FDF79EFE71
:104A8000FEF7C6BF0123FEF7E7BF087BB8F5FA6F54
:104A9000BFBFA8EB02014843C2F5FA6290FBF2F0F7
:104AA000C0F1640011F004F8254911F055F82060B8
:104AB000FFF704B85045D8BF0020019BC8BFA0EB4A
:104AC0000A00584310F0F4FFA945A060BFF662A8A1
:104AD00054F82B1001F1004144F82B10FFF71EB8D9
:104AE000039B9A8A90450FDBB8F5FA6F4346A8BF3F
:104AF0004FF4FA634FF47A719B1A4B43C2F5FA6292
:104B0000B3FBF2F3FFF757B81346F3E70D494846F6
:104B100010F018FF11F0FCF94FF47A7300B20003A3
:104B200090FBF3F0084B37B101221A70C5F57A7388
:104B30001BB2FFF783B81F70C5F5FA63F8E700BF33
:104B40000AD7233C00007A445C1E00202DE9F04F78
:104B5000AA4D85B0AB6828469847002800F04B81E5
:104B6000012305F14C07B846002485F85C30A44BBE
:104B7000DFF8C8A293F8009005F11A06B9F1040F06
:104B800008BF338836F9020B08BF2AF8143010F03A
:104B90008FFF0134032C48F8040FEFD1994B1B8889
:104BA00073B1296D984809F048F9696D28659748EF
:104BB00009F043F9A96D6865954809F03EF9A865C3
:104BC00095F82210092940F0BF80924901F1280090
:104BD00009F0BAFD904B1B781BB99049904809F039
:104BE000B3FD904E904C3388002B50D03B464FF095
:104BF0000009D4F8308004F5347AA8F1020B08F1EA
:104C000004023188CDE90132B1F5C87F08BFCAF886
:104C10000090DAF8000010F04BFF019B53F8041FDE
:104C20000193039310F090FE11F072F90022019BA2
:104C30004AF8040B1A60029A2BF8029F9345E0D1C0
:104C40003388012B20D14FF4C871D4F8D03203F14E
:104C5000C80292FBF1F2A8F80020D4F8D422D4F8CC
:104C6000D832C83292FBF1F2C83393FBF1F3A8F8C3
:104C700002202A8B9B1AA8F804306C4BA3F80A90E8
:104C8000A3F80C90FEF79AF83388013B3380684B09
:104C90001B685B077CD5B4F82081266BB8F1320F16
:104CA00056D13388A4F8DC327388A4F8DE32B38896
:104CB000A4F8E0325D4B5A899B89A4F8E222A4F85B
:104CC000E4324FF0000B0022DFF87491A6F1020AE3
:104CD000331DB8F1320F08BFC9F800B0D9F8000091
:104CE000CDE9013210F0E4FE57F8041F10F02CFE5D
:104CF00011F00EF9029A019B49F8040B3A602AF868
:104D000002BF9A45E5D1B8F1010F18D14FF0000369
:104D10000B2084F8223184F81C81FDF799FCB4F84B
:104D2000DC32B4F8E2223380B4F8DE327380B4F8B7
:104D3000E032B3803D4B5A81B4F8E4229A8108F105
:104D4000FF38A4F8208106E0354803F0D9F948E798
:104D5000B8F1000FB5D194F81D31CBB13221D4F8A0
:104D6000E832002293FBF1F33380D4F8EC3284F87C
:104D70001D2193FBF1F37380D4F8F03293FBF1F330
:104D8000298B5B1AB380294B5A819A81FEF716F85A
:104D9000246BB4F9000010F08BFE0146286D10F072
:104DA000D1FD80462865B4F9020010F081FE01466D
:104DB000686D10F0C7FD07466865B4F9040010F08F
:104DC00077FE0146A86D10F0BDFD1A4A1A4C136813
:104DD000064601331360A8654146206810F0B4FD13
:104DE00039462060606810F0AFFD31466060A06811
:104DF00010F0AAFDA06005B0BDE8F08F44120020BD
:104E0000600E00206C1600207C160020A0160020EA
:104E1000C41600206C120020090000204816002053
:104E2000941200201C1A0020880500206E16002015
:104E30008C1700201418002024180020620E002077
:104E40007008002010B5FBF7F2F9044648B10222C1
:104E5000094B9A73FDF704FFBDE81040002009F0EC
:104E60008FBB064809F0C0FF054809F0BDFF054BA0
:104E70001C715C7110BD00BF0A1A00203FA501081B
:104E800076A501088805002038B50409013C022CEC
:104E900000F00F0217D80D4D05EB440333F8341C16
:104EA00041FA02F313F001000CD0012090400138C8
:104EB000084011F073F82C4414F82E3C03440448C5
:104EC00000EBC30038BD0020FCE700BFB092010832
:104ED0007C08002037B50D460446D0B103680E4A61
:104EE00003F14043A3F5843302EB932313F82B0C17
:104EF0000DF0A2F8A38801A9ADF80430206805F0F0
:104F0000030305F07C058DF806308DF807500EF090
:104F1000D1FE03B030BD00BFB092010810B10368EC
:104F200082885A61704710B1036882881A6170479D
:104F3000064B984201BF064A538B01339BB203BF15
:104F40005383508B80B24FF0FF30704700380040E1
:104F5000402E00202DE9F843994603780646012BA0
:104F6000904615D0022B51D18068FFF7D7FF7068AB
:104F700041F080010CF040F84B4642460021706839
:104F80000CF002F8B068FFF7CEFF0120BDE8F8830F
:104F900090F90400441C37D0022835DC2424234F28
:104FA00004FB0074D4F8785475B394F889C40CF0F9
:104FB000FF02BCF1000F27D17679C4F89484760003
:104FC000F6B284F88A6484F88B1484F88D2484F80B
:104FD0008E3484F88C9484F8893484F88824AB88DF
:104FE000C4F8908499051BD42B88DA0514D44FF4A7
:104FF00080542B889B050BD5013CFAD1FB8B0133E8
:105000009BB2FB830CF015F800200BE00020BDE7FD
:105010002B8843F480732B80AB8843F44073AB80C0
:105020000CF068F900F00100B0E700BF880500202F
:10503000F7B506780446012E154611D0022E51D13F
:105040008068FFF76BFF60680BF0D6FF2946606849
:105050000BF0D2FFA068FFF766FF012003B0F0BDA0
:1050600090F904006479451C8DF8072038D0022897
:1050700036DC2423234D03FB0053D3F878247AB382
:1050800093F889C40CF0FF07BCF1000F28D164002D
:10509000E4B283F88A4483F88B1483F88D640DF1AD
:1050A000070183F88E7483F88C6483F8896483F82D
:1050B0008874C3F89014C3F8941493889C051BD487
:1050C0001388D90514D44FF4805413889B050BD54D
:1050D000013CFAD1EB8B01339BB2EB830BF0A9FFC0
:1050E00000200BE00020B9E7138843F4807313809D
:1050F000938843F4407393800CF0FCF800F00100B7
:10510000ACE700BF8805002010B5427A044632B1F2
:10511000036800F10A01406898470023637210BDDC
:105120002DE9F04F814690460D4614460026DFF8E3
:10513000D8A087B0B8F1000F63D0062221462846D8
:1051400012F0BCFFB0FA80F7207807F053FB8346DB
:1051500060797F0907F04EFBBBF1000F1ED01923C9
:1051600094F803E0A2789BF808105A4303FB0EF36F
:1051700094F801C002F5617203F5617394F804E0DC
:1051800000B1007ACDE90223CDE904E0CDE9001CAD
:1051900033465246394648460AF03CF8287807F02C
:1051A00029FB8346687907F025FBBBF1000F1ED071
:1051B000192395F803E0AA789BF808105A4303FBDB
:1051C0000EF395F801C002F5617203F5617395F86D
:1051D00004E000B1007ACDE90223CDE904E0CDE995
:1051E000001C33465246394648460AF02BF8013631
:1051F000142E05F1060504F106049BD107B0BDE8A5
:10520000F08F4746CAE700BF94A501082DE9F04F8B
:105210000E461546002797B0CDE90802D6F8008063
:105220000021404610F02CFE0446002867D1736828
:105230000493B3680593F3680693099B002B3AD057
:10524000D5F800B0EB6859464046D5F804A0D5F82B
:105250000890079310F014FE80B15146049810F0A6
:105260000FFE58B14946059810F00AFE30B1079973
:10527000069810F005FE041C18BF012413A9584617
:105280000AF0A4F810A9834650460AF09FF80DA929
:10529000824648460AF09AF80AA9814607980AF019
:1052A00095F8CDE900BACDE902903B46154A214672
:1052B000089809F0AFFF13A940460AF087F810A933
:1052C000044604980AF082F80DA9804605980AF071
:1052D0007DF80AA9814606980AF078F83B46CDE9A0
:1052E0000290CDE90048074A00210898013709F0EB
:1052F000A9FF082F06F1100605F110058ED117B091
:10530000BDE8F08FADA501082DE9F04F824691462A
:105310000D46144600264FF01908DFF8A0B089B0FA
:10532000B9F1000F47D00A222146284612F0C6FEE6
:10533000B0FA80F723897F090693E3885A460593DC
:10534000237939460493E37850460393A37808FB06
:1053500003F303F561730293637808FB03F303F52A
:105360006173019323780093334609F053FF2B892F
:105370005A460693EB88394605932B795046049399
:10538000EB780A340393AB7808FB03F303F56173FE
:1053900002936B7808FB03F303F56173019315F82F
:1053A0000A3B00933346013609F04CFF1E2EB7D15D
:1053B00009B0BDE8F08F4F46D9E700BFC1A501088D
:1053C0002DE9F74F81468B4617460E460024DFF83D
:1053D0005CA047B307EB840804224146304612F034
:1053E0006DFEB0FA80F5B8F802306D09019337F818
:1053F00024305246009329462346484609F00AFFC6
:105400007388524601933BF824302946009348465E
:105410002346013409F016FF042C06F10406D8D106
:1054200003B0BDE8F08F3D46EAE700BFE4A5010800
:105430002DE9F04F814690460D4614462C4EDFF87C
:10544000B8A087B002F1200B002395F9022029496A
:10545000591891F90610914245D00833202BF6D106
:1054600008345C4505F10805EED107B0BDE8F08FC2
:1054700008222146284612F021FEB0FA80F7627910
:1054800094F9023056F822207F090492A279394615
:1054900056F8222048460392227956F8222002929A
:1054A000E27856F82220019222880092524609F0B2
:1054B000B1FE6A7995F9023056F8222039460492F5
:1054C000AA79484656F8222003922A7956F82220D3
:1054D0000292EA7856F8222001922A8800925246D7
:1054E00009F0B0FEBCE7B8F1000FC1D14746E0E7D4
:1054F000109B0108A42F0020F5A501082DE9F04F0D
:105500000F468FB02D4906460BF0EAF805460028F5
:1055100043D12B4930460BF0E3F8054600283ED135
:10552000284930460BF0DCF80546002839D12649D9
:1055300030460BF0D5F80546A8BB244930460BF0A1
:10554000CFF8002805460ABF0124082435460FB1CC
:1055500044F010041E4928460BF0C2F828B344F06A
:10556000200408F079FF0BF02FFA14F0090F00F077
:10557000588204F4807300200493FBF7F5F8049B31
:1055800073BB144809F044F804F01803182B02D137
:10559000114809F03DF8012323E00124D7E7022454
:1055A000D5E70424D3E78124D1E70C4928460BF042
:1055B00097F80028D5D044F48074D2E71BA60108E0
:1055C00040C0010807C301088EAE010822A60108E9
:1055D00026A6010834A6010840A601082FA6010846
:1055E0000023039304F48473082B02D1002009F0F4
:1055F00049FC14F080070BD1C44B20461A78002ACE
:10560000C34A06BF012113460021C24A09F01AFE0F
:105610002046FBF711F8002F40F01382DFF870836B
:10562000BD4B98F800501B78BC4EE81A45424541E6
:1056300006EB8303294653F8283CB94A204609F073
:10564000E9FD98F80030294606EB8306B54D56F87B
:10565000283CB34A204609F0F5FD0021D5F8BC04EA
:105660004FF0010610F00CFC00B93E46AE4A06F0C1
:105670000101204609F0E6FDAC4A204602F1800116
:10568000FFF7C4FDAA4BD3F80090AB79002B00F0D4
:10569000E480AE680027DFF89CA2DFF8F8B25AF881
:1056A0002750002D40F0DC80DFF8ECA266EA090B01
:1056B000A04B53F82580B8F1000F40F0F1809E4BCD
:1056C00045461F689D4BDFF8D4821B687B40DB4357
:1056D00005932846FCF766FA30F07F4326D0059BF9
:1056E000974A03424FF00C0314BF4FF001094FF0EB
:1056F000000903FB0523DFF8A8A2D3F808B017EAD6
:105700000006904B0CBF424652464946CDF800B0C9
:10571000204609F07FFDCDF800B08A4B002E14BF63
:10572000424652464946204609F08CFD0135182D67
:10573000CFD101260023844D844FDFF868C25A5D23
:10574000D95D0EA8104400F8201C13F80C000DF1D0
:10575000380E86440EF8101C16B1111A4E424E41F6
:105760000133082BEBD1002531460AAB784A20469D
:105770008DF820508DF8305009F04CFD06AB3146C5
:10578000734A204609F05EFD724A73492046FFF7CE
:105790004FFE724A72492046FFF7C2FC714A7249B5
:1057A0002046FFF7B1FD714A71492046FFF708FE18
:1057B0000126DFF8F4B1DFF8F4A16E4B6E48022247
:1057C0009919304412F07AFCB0FA80F7DFF84C9166
:1057D0001BF815307F094B4493F8C4201AF8153094
:1057E000022B7ED14FF0190816F80B30394608FB12
:1057F00003F303F2EE23CDE9002320462B465F4A54
:1058000009F008FD16F80A305C4A08FB03F808F2B4
:10581000EE2301931AF815303946994499F8C430AB
:10582000204600932B4609F00DFD0135122D06F19F
:105830000206C2D1524A214600200BF0E7F814F0CC
:10584000080F504E40F0B48021463078FBF73AFA0A
:1058500021467078FBF716FADCE04B4B1E6819E71F
:105860002B78DBB14FF0010866EA090308FA07F864
:1058700013EA080F14BF012100212B465A46204687
:1058800009F0C8FC69EA060313EA080F5A462B46DA
:1058900014BF01210021204609F0D4FC0137FEE6A7
:1058A00098F80030DBB10127AF403E420AD069EAE8
:1058B00006033B425246434614BF012100212046C5
:1058C00009F0A8FC19EA070F09D01BEA070F4346A5
:1058D000524614BF01210021204609F0B3FC0135D6
:1058E000E6E600922B463946284A204609F092FC0B
:1058F0001AF81530254A994499F8C430394600936E
:1059000020462B4609F09EFC8FE700BF892300202C
:1059100012A6010850A6010834190020B09201080F
:105920005DA601088805002066A60108440A00203B
:1059300090250020F8920108C82100203C1F00207B
:10594000E48F01088CA60108C6250020F89A0108FA
:1059500093A60108802F0020583000207C180020DA
:10596000BB2300205C200020E22100207E250020B7
:105970006E2500205D190020A12500209AA60108AF
:105980001BA60108AB2300208C170020AAA6010843
:105990005C26002075A6010881A6010814A601084E
:1059A000BBA501088E0C00205E190020A225002056
:1059B00021460020FBF786F921460120FBF782F9FA
:1059C000234D33786B70049B13B9224809F079FD9D
:1059D000FF27214600206F70FBF754F92146012074
:1059E000FBF750F921460220FBF74CF973782B7036
:1059F000049B73B91748FBF787F8174808F0A4FD14
:105A00002F70164B1B7B0BB1FAF7E6FD0FB0BDE80C
:105A1000F08F2F70039B002BF3D0114808F0F8FD96
:105A2000EFE7A20705D50F4B21461878FBF74AF997
:105A3000E7E76307E5D50B4B21465878FBF722F9DA
:105A4000DFE7094A214618200AF0E0FFE2E700BF3D
:105A500000000020D9A601084BA6010888050020F7
:105A6000B7A60108AB2300201BA60108012145E5CC
:105A7000002143E52DE9F04FB64B91B01B78222B66
:105A800008D10023B44A1380B44B1B68003318BFFD
:105A900001235380B24B1E789946002E00F0FC8003
:105AA000B04CD4F8BC354BB108F046FDAE4E04F511
:105AB000B965D4F8C005FCF715FD10B911B0BDE803
:105AC000F08FD4F8C005FCF707FD092801D03F2866
:105AD0005FD14FF0000BDA465F46D4F8C48506EB81
